:020000020000FC
:020000000EC030
:0200080034C002
:10001C004CC00FEF0DBF00E10EBF20E010E040E040
:10002C0032E002E000936F000CE00093810030930B
:10003C00890000E00093880009E70093B00000E01D
:10004C000093B30000E10DBB0FEF00936B0003E0D6
:10005C00009369000FEF07B900E804B900E00DB98F
:10006C0078948895FECF5FB70CB100FB36F401FB9A
:10007C005EF402FB7EF45FBF189510E0203011F0A7
:10008C0020E001C021E0F7CF439510E0433009F4A4
:10009C0040E0F1CFF8943395373009F432E03093E7
:1000AC00890000E000938800E6CF5FB700E00217FC
:1000BC0031F001E0401791F03CF01AC003C025D09C
:1000CC0000E008B95FBF189500E0011719F00FEFB9
:1000DC0010E002C000E011E008B9F4CF00E0011715
:1000EC0019F005E510E002C00AEA11E008B9EACF00
:1000FC0061E0012F003019F0660F0A95FBCF68B94B
:10010C001395183009F410E0DDCF000008950000BD
:02011C00089544
:00000001FF
