:020000020000FC
:020000000EC030
:020008002FC007
:10001C002CC00FEF0DBF00E10EBF02E000936F008C
:10002C000CE00093810002E00093890000E0009353
:10003C00880000E10DBB0FEF00936B0003E0009311
:10004C0069000FEF07B900E804B900E00DB921E031
:10005C0010E042E031E078948895FECF0FB70F9313
:10006C0000E002170F910FBF18955FB700E0021761
:10007C0031F001E0401791F03CF01AC003C025D0DC
:10008C0000E008B95FBF189500E0011719F00FEFF9
:10009C0010E002C000E011E008B9F4CF00E0011755
:1000AC0019F005E510E002C00AEA11E008B9EACF40
:1000BC0061E0012F003019F0660F0A95FBCF68B98B
:0E00CC001395183009F410E0DDCF0000089500
:00000001FF
