:020000020000FC
:0200000004C03A
:02001C001EC004
:1000080033C000E804B90FEF07B90FEF0DB900E1ED
:1000180005BF02E000936F000CE00093810000E050
:100028000093890000E80093880009E70093B00076
:100038000EEB0093B30000E100931D0007E000936E
:100048006B0010E020E031E040E0789400C0000050
:10005800FECF00E0101721F00FEF08B910E003C041
:1000680000E008B911E018950CB100FB0EF407D0B8
:1000780001FB0EF40AD002FB0EF40DD018952130C6
:1000880011F021E001C020E00895439503E04013FA
:1000980040E011E0089533950BE0301330E0302F45
:1000A800069510F050E001C050E850938800009386
:0400B800890008951E
:00000001FF
