:020000020000FC
:0200000014C02A
:0200080041C0F5
:02001C005CC0C6
:1000280093C00FEF0DBF00E10EBF20E010E040E0ED
:1000380032E002E000936F000CE0009381003093FF
:10004800890000E00093880009E70093B00000E011
:100058000093B3000AE004BD08EC07BD00E000937C
:100068006E0000E10DBB0FEF00936B0003E00093FF
:1000780069000FEF07B900E804B900E00DB97894FA
:100088008895FECF5FB70CB100FB36F401FB6EF428
:1000980002FB8EF45FBF189510E0203019F020E0C5
:1000A80045D002C021E049D0F5CF439510E0433058
:1000B80009F440E0EFCFF8943395373009F432E093
:1000C8003093890000E0009388007894E3CF5FB70D
:1000D80000E0021731F001E0401789F034F019C050
:1000E80002C000E008B95FBF189500E0011719F0D9
:1000F8000FEF10E002C000E011E008B9F4CF00E013
:10010800011719F005E510E002C00AEA11E008B984
:10011800EACF61E0012F003019F0660F0A95FBCF96
:1001280068B91395183009F410E0DDCFF89470E041
:1001380002E000936E0078940895F89471E002E06C
:1001480000936E00789408955FB7F8940091B30017
:10015800703031F40F3F61F003950093B30005C090
:10016800003031F00A950093B30078945FBF18957A
:0801780000E000936E00F9CFD6
:00000001FF
